:100000000C9417010C942B010C942B010C942B01D4
:100010000C942B010C942B010C942B010C942B01B0
:100020000C942B010C942B010C942B010C942B01A0
:100030000C942B010C942B010C942B010C942B0190
:100040000C942B010C942B010C942B010C942B0180
:100050000C942B010C942B010C942B010C9471012A
:100060000C942B010C942B010C942B010C942B0160
:100070000C942B010C942B010C942B010C942B0150
:100080000C942B010C942B010C942B010C942B0140
:100090000C942B010C942B010C942B010C942B0130
:1000A0000C942B010C942B010C942B010C942B0120
:1000B0000C942B010C942B010C942B010C942B0110
:1000C0000C942B010C942B010C942B010C942B0100
:1000D0000C942B010C942B010C942B010C942B01F0
:1000E0000C942B010C94B9020C94C9020C946C0270
:1000F0000C94E5020C94CD020C94AA020C94C30259
:100100000C94AE020C94D7020C94E9020C94BF023A
:100110000C9467020C94DF020C94B6020C94D1028A
:100120000C94DB020C94B20200000A0B02090C0DC5
:100130000E0807030401000000000000000000009A
:1001400000000000000000000000000000000000AF
:10015000000000001211100000000000000000006C
:10016000000000000000000000000000000000008F
:100170002200250028002B002E003100340002014F
:100180000000050108010B010000210024002700E8
:100190002A002D0030003300010100000401070196
:1001A0000A010505050507050808080802020202FC
:1001B0000A0A080804040404010101010101010103
:1001C0000303030303030303040707070C0C0C0CCE
:1001D0000C0C0C0C020202020606060606060606B7
:1001E0000B0B0B0B0B0B0B0B010210202008081044
:1001F0002040102040800201020108040201010297
:10020000040810204080804020100804020180046F
:1002100002018040201008040201080402010102CA
:10022000040810204080010204081020408011249E
:100230001FBECFEFD1E2DEBFCDBF00E00CBF22E09A
:10024000A0E0B2E001C01D92A930B207E1F70E9420
:10025000BB010C94F5020C94000090E0FC01E85105
:10026000FE4F24918E559E4FFC018491882399F076
:1002700090E0880F991FFC01E857FE4FA591B491BB
:10028000FC01E259FE4F859194918FB7F894EC915F
:10029000E22BEC938FBF08953FB7F894809105024D
:1002A00090910602A0910702B091080226B5A89B82
:1002B00005C02F3F19F00196A11DB11D3FBFBA2FF8
:1002C000A92F982F8827BC01CD01620F711D811DB8
:1002D000911D42E0660F771F881F991F4A95D1F73D
:1002E00008951F920F920FB60F9211242F933F93F0
:1002F0008F939F93AF93BF938091010290910202DD
:10030000A0910302B09104023091000223E0230F78
:100310002D3758F50196A11DB11D20930002809341
:10032000010290930202A0930302B0930402809111
:10033000050290910602A0910702B0910802019671
:10034000A11DB11D8093050290930602A0930702A0
:10035000B0930802BF91AF919F918F913F912F91E0
:100360000F900FBE0F901F90189526E8230F02964E
:10037000A11DB11DD2CF789484B5826084BD84B5AF
:10038000816084BD85B5826085BD85B5816085BD90
:1003900080916E00816080936E0010928100809148
:1003A00081008260809381008091810081608093D0
:1003B0008100809180008160809380008091B100F5
:1003C00084608093B1008091B00081608093B00020
:1003D0008091910082608093910080919100816072
:1003E0008093910080919000816080939000809133
:1003F000A10082608093A1008091A1008160809320
:10040000A1008091A00081608093A00080912101D3
:10041000826080932101809121018160809321017C
:100420008091200181608093200180917A00846016
:1004300080937A0080917A00826080937A00809124
:100440007A00816080937A0080917A00806880933E
:100450007A001092C10080E00E942D01C6E18C2F2D
:100460000E942D01CF5FC632D1F700E010E0C6E157
:10047000D0E0FE01E85DFE4F8491FE01E851FE4FA1
:100480002491FE01EE55FE4F9491992309F432C058
:10049000882311F181508231F8F4E82FF0E08827A9
:1004A000EB5AFD4F8F4F0C94ED02B202B602670279
:1004B000AA02AE026C02B902BF02C302C902CD0297
:1004C000D102D702DB026C02DF02E502E902809171
:1004D00080008F7780938000E92FF0E0EE0FFF1F00
:1004E000E259FE4FA591B4918FB7F894EC912E2B61
:1004F0002C938FBF0E944C014B015C0184E6C82EF7
:10050000D12CE12CF12C0E944C01681979098A093F
:100510009B09683E734081059105A8F321E0C21A4A
:10052000D108E108F10888EE880E83E0981EA11C2E
:10053000B11CC114D104E104F10429F72196C6329B
:10054000D10509F096CF0115110509F490CF0E944D
:1005500000008DCF809180008F7DBCCF8091800086
:10056000877FB8CF84B58F7784BDB6CF84B58F7DB4
:10057000FBCF8091B0008F778093B000ADCF80919A
:10058000B0008F7DF9CF809190008F77809390009D
:10059000A3CF809190008F7DF9CF80919000877FCD
:1005A000F5CF8091A0008F778093A00095CF8091A8
:1005B000A0008F7DF9CF8091A000877FF5CF80913B
:1005C00020018F778093200187CF809120018F7D3C
:1005D000F9CF80912001877FF5CFEE0FFF1F881F95
:0E05E0008BBF0790F691E02D1994F894FFCF91
:00000001FF
