:100000000C945D000C9485000C9485000C94850084
:100010000C9485000C9485000C9485000C9485004C
:100020000C9485000C9485000C9485000C9485003C
:100030000C9485000C9485000C9485000C9485002C
:100040000C944F020C9485000C94BF020C949902FE
:100050000C9485000C9485000C9485000C9485000C
:100060000C9485000C9485000000000024002700FB
:100070002A0000000000250028002B0004040404CE
:100080000404040402020202020203030303030342
:10009000010204081020408001020408102001021F
:1000A00004081020000000080002010000030407FB
:1000B0000000000000000000A30411241FBECFEFC9
:1000C000D8E0DEBFCDBF11E0A0E0B1E0E0EBF9E0A9
:1000D00002C005900D92AA38B107D9F722E0AAE82C
:1000E000B1E001C01D92A434B207E1F710E0CDE504
:1000F000D0E004C02197FE010E94D004CC35D10786
:10010000C9F70E94F1020C94D6040C94000090E010
:10011000FC01EC55FF4F2491FC01E057FF4F349157
:10012000FC01E458FF4FE491EE23C9F0222339F09B
:10013000233001F1A8F4213019F1223029F1F0E047
:10014000EE0FFF1FEE58FF4FA591B4918FB7F894B3
:10015000EC91611126C030953E233C938FBF0895EA
:100160002730A9F02830C9F0243049F78091800069
:100170008F7D03C0809180008F7780938000DFCFD8
:1001800084B58F7784BDDBCF84B58F7DFBCF809125
:10019000B0008F778093B000D2CF8091B0008F7D78
:1001A000F9CF3E2BDACFCF93DF9390E0FC01E057FD
:1001B000FF4F249184589F4FFC0184918823D1F0F4
:1001C00090E0880F991FFC01E859FF4FA591B49169
:1001D000FC01EE58FF4FC591D49161110EC09FB73D
:1001E000F8948C91E22FE0958E238C932881E22362
:1001F000E8839FBFDF91CF9108958FB7F894EC917A
:10020000E22BEC938FBFF6CF3FB7F894809140027A
:1002100090914102A0914202B091430226B5A89B61
:1002200005C02F3F19F00196A11DB11D3FBFBA2F88
:10023000A92F982F8827BC01CD01620F711D811D48
:10024000911D42E0660F771F881F991F4A95D1F7CD
:100250000895AF92BF92CF92DF92EF92FF920F93E9
:100260001F93CF93DF936C017B018B01040F151F4C
:10027000EB015E01AE18BF08C017D10759F06991B4
:10028000D601ED91FC910190F081E02DC601099518
:10029000892B79F7C501DF91CF911F910F91FF90C5
:1002A000EF90DF90CF90BF90AF900895FC01538DF9
:1002B000448D252F30E0842F90E0821B930B541740
:1002C00010F0CF96089501970895FC01918D828DCD
:1002D000981761F0A28DAE0FBF2FB11D5D968C9166
:1002E000928D9F5F9F73928F90E008958FEF9FEFA5
:1002F0000895FC01918D828D981731F0828DE80F61
:10030000F11D858D90E008958FEF9FEF0895FC011A
:10031000918D228D892F90E0805C9F4F821B9109E7
:100320008F73992708958AE891E00E94870121E060
:10033000892B09F420E0822F089580E090E0892B3A
:1003400029F00E94930181110C9400000895FC0192
:10035000A48DA80FB92FB11DA35ABF4F2C91848D26
:1003600090E001968F739927848FA689B7892C9383
:10037000A089B1898C91837080648C93938D848DD6
:10038000981306C00288F389E02D80818F7D8083D9
:100390000895EF92FF920F931F93CF93DF93EC0199
:1003A00081E0888F9B8D8C8D98131AC0E889F9891C
:1003B000808185FF15C09FB7F894EE89FF8960831F
:1003C000E889F98980818370806480839FBF81E0A0
:1003D00090E0DF91CF911F910F91FF90EF900895E2
:1003E000F62E0B8D10E00F5F1F4F0F731127E02EBD
:1003F0008C8D8E110CC00FB607FCFACFE889F989F5
:10040000808185FFF5CFCE010E94A701F1CFEB8D52
:10041000EC0FFD2FF11DE35AFF4FF0829FB7F894C8
:100420000B8FEA89FB8980818062CFCFCF93DF93E6
:10043000EC01888D8823B9F0AA89BB89E889F989FC
:100440008C9185FD03C0808186FD0DC00FB607FC31
:10045000F7CF8C9185FFF2CF808185FFEDCFCE0164
:100460000E94A701E9CFDF91CF910895CF93DF9349
:10047000D82FC8E06D2F661F6627661F82E00E9496
:100480008700DD0F61E084E00E94870060E084E087
:100490000E948700C15071F7DF91CF9108951F929C
:1004A0000F920FB60F9211242F933F938F939F9328
:1004B000AF93BF9380913C0290913D02A0913E0288
:1004C000B0913F0230913B0223E0230F2D3758F5C6
:1004D0000196A11DB11D20933B0280933C02909395
:1004E0003D02A0933E02B0933F0280914002909162
:1004F0004102A0914202B09143020196A11DB11D9B
:100500008093400290934102A0934202B093430231
:10051000BF91AF919F918F913F912F910F900FBEFF
:100520000F901F90189526E8230F0296A11DB11D6C
:10053000D2CF1F920F920FB60F9211242F933F9399
:100540004F935F936F937F938F939F93AF93BF93DB
:10055000EF93FF938AE891E00E94A701FF91EF914A
:10056000BF91AF919F918F917F916F915F914F91CB
:100570003F912F910F900FBE0F901F9018951F92D3
:100580000F920FB60F9211242F938F939F93EF9397
:10059000FF93E0919A01F0919B018081E091A0018D
:1005A000F091A10182FD1BC090818091A3018F5F1A
:1005B0008F732091A401821741F0E091A301F0E034
:1005C000E657FE4F958F8093A301FF91EF919F9186
:1005D0008F912F910F900FBE0F901F9018958081D3
:1005E000F4CF789484B5826084BD84B5816084BD85
:1005F00085B5826085BD85B5816085BD80916E00C1
:10060000816080936E0010928100809181008260F1
:10061000809381008091810081608093810080912E
:1006200080008160809380008091B100846080931D
:10063000B1008091B00081608093B00080917A0019
:10064000846080937A0080917A00826080937A003F
:1006500080917A00816080937A0080917A0080682E
:1006600080937A001092C100E0919A01F0919B0171
:1006700082E08083E0919601F09197011082E091F1
:100680009801F09199018FEC80831092A201E09182
:100690009E01F0919F0186E08083E0919C01F091A2
:1006A0009D01808180618083E0919C01F0919D019A
:1006B000808188608083E0919C01F0919D01808120
:1006C00080688083E0919C01F0919D0180818F7D05
:1006D000808360E084E10E94D30061E082E00E94B8
:1006E000D30061E083E00E94D30061E084E00E94D7
:1006F000D30026E3E22E21E0F22E0DE212E0C2E862
:10070000D1E08881229661E00E94D300F701219117
:100710007F01E2E1F1E090E080E03191231731F0D8
:10072000019684329105C9F790E080E0F801819349
:1007300091938F01F1E0CA38DF0719F7C0E0D0E0EC
:1007400095E3E92E92E0F92E10E000E06090390286
:1007500070903A02601671060CF480C082E8882E10
:1007600081E0982EB12CA12CF4018081F2E08F0E53
:10077000911C60E00E9487002FEFA21AB20A6A144F
:100780007B0494F7F70181917F01E0912B02F091B6
:100790002C02882341F0F801EE0FFF1FE35DFD4FAF
:1007A0000190F081E02DEE0FFF1FE65CFE4FB08060
:1007B000A18060E083E00E9487008A2D0E943602BB
:1007C0008B2D0E94360261E083E00E94870061E089
:1007D0000115110509F060E085E00E94870061E0E5
:1007E0000130110509F060E086E00E94870061E0B9
:1007F0000230110509F060E087E00E94870061E0A7
:100800000330110509F060E088E00E9487000E9433
:1008100004012B013C0175E0872E912CA12CB12CF9
:100820000E9404016419750986099709683E73409E
:1008300081059105A8F3F1E08F1A9108A108B1088C
:1008400028EE420E23E0521E611C711C811491049B
:10085000A104B10429F70F5F1F4F78CF2FB7F89489
:1008600080913C0290913D02A0913E02B0913F02E6
:100870002FBF409127025091280260912902709168
:100880002A02841B950BA60BB70B85369105A10593
:10089000B10508F44DC02FB7F89480913C029091B7
:1008A0003D02A0913E02B0913F022FBF80932702EC
:1008B00090932802A0932902B0932A0280912B02E0
:1008C00090912C02019690932C0280932B028432FB
:1008D000910574F52091390230913A02880F991FE1
:1008E000FC01E65CFE4FD901AA0FBB1FA35DBD4F03
:1008F0000D90BC91A02DAA0FBB1FA65CBE4F4081DE
:1009000051818D919C914817590791F481E0F9012B
:10091000EB5CFD4F808310922C0210922B0224304E
:10092000310534F42F5F3F4F30933A022093390260
:10093000209709F405CF0E949301882309F400CF82
:100940000E940000FDCEEAE8F1E01382128288EEF8
:1009500093E0A0E0B0E084839583A683B78384E02E
:1009600091E09183808385EC90E09587848784EC87
:1009700090E09787868780EC90E0918B808B81EC6C
:1009800090E0938B828B82EC90E0958B848B86EC4D
:1009900090E0978B868B118E128E138E148E089595
:1009A000EE0FFF1F0590F491E02D0994F894FFCF0E
:1009B00000000000C90129015601160287016501E6
:1009C0007901303132333435363738394142434496
:1009D00045464748494A4B4C4D4E4F50515253544F
:1009E00055565758595A49424E55FF440C0077887E
:1009F0003F888C88B390FB880F00FF88BF88CF8822
:100A00003F2AF3003F22F388F388FB08CC88332287
:100A10007C00C094F000CC05CC11FF00C788FF100B
:100A2000C798BB880322FC00C044CC500055002569
:0A0A3000334405000600070008002B
:00000001FF
