:020000040000FA
:100000000C945D000C9485000C9485000C94850084
:100010000C9485000C9485000C9485000C9485004C
:100020000C9485000C9485000C9485000C9485003C
:100030000C9485000C9485000C9485000C9485002C
:100040000C944F020C9485000C94BF020C949902FE
:100050000C9485000C9485000C9485000C9485000C
:100060000C9485000C9485000000000024002700FB
:100070002A0000000000250028002B0004040404CE
:100080000404040402020202020203030303030342
:10009000010204081020408001020408102001021F
:1000A00004081020000000080002010000030407FB
:1000B0000000000000000000F10211241FBECFEF7D
:1000C000D8E0DEBFCDBF12E0A0E0B1E0EEE3FCE09F
:1000D00002C005900D92AA3AB107D9F723E0AAEA27
:1000E000B2E001C01D92AC35B207E1F710E0CDE5FA
:1000F000D0E004C02197FE010E941706CC35D1073D
:10010000C9F70E9462040C941D060C94000090E054
:10011000FC01EC55FF4F2491FC01E057FF4F349157
:10012000FC01E458FF4FE491EE23C9F0222339F09B
:10013000233001F1A8F4213019F1223029F1F0E047
:10014000EE0FFF1FEE58FF4FA591B4918FB7F894B3
:10015000EC91611126C030953E233C938FBF0895EA
:100160002730A9F02830C9F0243049F78091800069
:100170008F7D03C0809180008F7780938000DFCFD8
:1001800084B58F7784BDDBCF84B58F7DFBCF809125
:10019000B0008F778093B000D2CF8091B0008F7D78
:1001A000F9CF3E2BDACFCF93DF9390E0FC01E057FD
:1001B000FF4F249184589F4FFC0184918823D1F0F4
:1001C00090E0880F991FFC01E859FF4FA591B49169
:1001D000FC01EE58FF4FC591D49161110EC09FB73D
:1001E000F8948C91E22FE0958E238C932881E22362
:1001F000E8839FBFDF91CF9108958FB7F894EC917A
:10020000E22BEC938FBFF6CF3FB7F8948091BB02FF
:100210009091BC02A091BD02B091BE0226B5A89BF0
:1002200005C02F3F19F00196A11DB11D3FBFBA2F88
:10023000A92F982F8827BC01CD01620F711D811D48
:10024000911D42E0660F771F881F991F4A95D1F7CD
:100250000895AF92BF92CF92DF92EF92FF920F93E9
:100260001F93CF93DF936C017B018B01040F151F4C
:10027000EB015E01AE18BF08C017D10759F06991B4
:10028000D601ED91FC910190F081E02DC601099518
:10029000892B79F7C501DF91CF911F910F91FF90C5
:1002A000EF90DF90CF90BF90AF900895FC01538DF9
:1002B000448D252F30E0842F90E0821B930B541740
:1002C00010F0CF96089501970895FC01918D828DCD
:1002D000981761F0A28DAE0FBF2FB11D5D968C9166
:1002E000928D9F5F9F73928F90E008958FEF9FEFA5
:1002F0000895FC01918D828D981731F0828DE80F61
:10030000F11D858D90E008958FEF9FEF0895FC011A
:10031000918D228D892F90E0805C9F4F821B9109E7
:100320008F73992708958FEB92E00E94870121E057
:10033000892B09F420E0822F089580E090E0892B3A
:1003400029F00E94930181110C9400000895FC0192
:10035000A48DA80FB92FB11DA35ABF4F2C91848D26
:1003600090E001968F739927848FA689B7892C9383
:10037000A089B1898C91837080648C93938D848DD6
:10038000981306C00288F389E02D80818F7D8083D9
:100390000895EF92FF920F931F93CF93DF93EC0199
:1003A00081E0888F9B8D8C8D98131AC0E889F9891C
:1003B000808185FF15C09FB7F894EE89FF8960831F
:1003C000E889F98980818370806480839FBF81E0A0
:1003D00090E0DF91CF911F910F91FF90EF900895E2
:1003E000F62E0B8D10E00F5F1F4F0F731127E02EBD
:1003F0008C8D8E110CC00FB607FCFACFE889F989F5
:10040000808185FFF5CFCE010E94A701F1CFEB8D52
:10041000EC0FFD2FF11DE35AFF4FF0829FB7F894C8
:100420000B8FEA89FB8980818062CFCFCF93DF93E6
:10043000EC01888D8823B9F0AA89BB89E889F989FC
:100440008C9185FD03C0808186FD0DC00FB607FC31
:10045000F7CF8C9185FFF2CF808185FFEDCFCE0164
:100460000E94A701E9CFDF91CF910895CF93DF9349
:10047000D82FC8E06D2F661F6627661F82E00E9496
:100480008700DD0F61E084E00E94870060E084E087
:100490000E948700C15071F7DF91CF9108951F929C
:1004A0000F920FB60F9211242F933F938F939F9328
:1004B000AF93BF938091B7029091B802A091B90217
:1004C000B091BA023091B60223E0230F2D3758F5D0
:1004D0000196A11DB11D2093B6028093B70290939F
:1004E000B802A093B902B093BA028091BB02909176
:1004F000BC02A091BD02B091BE020196A11DB11D2A
:100500008093BB029093BC02A093BD02B093BE0245
:10051000BF91AF919F918F913F912F910F900FBEFF
:100520000F901F90189526E8230F0296A11DB11D6C
:10053000D2CF1F920F920FB60F9211242F933F9399
:100540004F935F936F937F938F939F93AF93BF93DB
:10055000EF93FF938FEB92E00E94A701FF91EF9141
:10056000BF91AF919F918F917F916F915F914F91CB
:100570003F912F910F900FBE0F901F9018951F92D3
:100580000F920FB60F9211242F938F939F93EF9397
:10059000FF93E091CF02F091D0028081E091D502EB
:1005A000F091D60282FD1BC090818091D8028F5FAE
:1005B0008F732091D902821741F0E091D802F0E0C8
:1005C000E154FD4F958F8093D802FF91EF919F9159
:1005D0008F912F910F900FBE0F901F9018958081D3
:1005E000F4CF2F923F924F925F926F927F928F92B1
:1005F0009F92AF92BF92CF92DF92EF92FF920F93B2
:100600001F93CF93DF93EFEBF2E01382128288EE19
:1006100093E0A0E0B0E084839583A683B78380E570
:1006200092E09183808385EC90E09587848784ECC9
:1006300090E09787868780EC90E0918B808B81ECAF
:1006400090E0938B828B82EC90E0958B848B86EC90
:1006500090E0978B868B118E128E138E148E8EE502
:1006600092E0E8EDF1E0808328EA32E023832683FC
:10067000218724872787228B258B208F238F268F06
:1006800021A324A327A322A725A720AB23AB26AB16
:1006900021AF24AF27AF20931A0220931D0220938D
:1006A00020022093230220932602209329022093E4
:1006B0002C0220932F0220933202209335022093A4
:1006C000380220933B0220933E022093410290E6A1
:1006D000292E92E0392EECE6F1E0208222E6422E2D
:1006E00022E0522E438234E6632E32E0732E66827D
:1006F00046E6842E42E0942E818658E6A52E52E0EE
:10070000B52EA4866AE6C62E62E0D62EC7867CE6A3
:10071000E72E72E0F72EE28A0EE612E0058B20E764
:1007200032E0208F22E732E0238F868F24E732E009
:1007300021A326E732E024A328E732E027A32AE713
:1007400032E022A72CE732E025A72EE732E020ABEB
:1007500020E832E023AB22E832E026AB24E832E0A6
:1007600021AF26E832E024AF28E832E027AF2AE8BC
:1007700032E02093AE012CE832E02093B1012EE864
:1007800032E02093B40120E932E02093B70122E95E
:1007900032E02093BA0124E932E02093BD0126E93A
:1007A00032E02093C00128E932E02093C3012AE916
:1007B00032E02093C601CCE9D2E0C093C901AEE992
:1007C000B2E0A093CC0160EA72E06093CF0142EA0C
:1007D00052E04093D20124EA32E02093D501E0E0D8
:1007E000F1E02082438266828186A486C786E28AFF
:1007F000058B00E712E0008F02E712E0038F868F7F
:1008000084E792E081A306E712E004A388E792E080
:1008100087A30AE712E002A78CE792E085A70EE71C
:1008200012E000AB80E892E083AB02E812E006AB96
:1008300084E892E081AF06E812E004AF88E892E035
:1008400087AF0AE812E0009342018CE892E08093BF
:1008500045010EE812E00093480180E992E08093A0
:100860004B0102E912E000934E0184E992E080938B
:10087000510106E912E00093540188E992E0809367
:1008800057010AE912E000935A01C0935D01A09359
:100890006001609363014093660120936901DF91D9
:1008A000CF911F910F91FF90EF90DF90CF90BF906D
:1008B000AF909F908F907F906F905F904F903F9000
:1008C0002F900895CF93DF93CDB7DEB7A1970FB6E2
:1008D000F894DEBF0FBECDBF789484B5826084BD2E
:1008E00084B5816084BD85B5826085BD85B5816034
:1008F00085BD80916E00816080936E0010928100B2
:10090000809181008260809381008091810081606C
:10091000809381008091800081608093800080912D
:10092000B10084608093B1008091B00081608093B9
:10093000B00080917A00846080937A0080917A0080
:10094000826080937A0080917A00816080937A003F
:1009500080917A00806880937A001092C100E091C3
:10096000CF02F091D00282E08083E091CB02F0913F
:10097000CC021082E091CD02F091CE028FEC808308
:100980001092D702E091D302F091D40286E08083E6
:10099000E091D102F091D202808180618083E09168
:1009A000D102F091D202808188608083E091D102EF
:1009B000F091D202808180688083E091D102F09131
:1009C000D20280818F7D808360E084E10E94D30029
:1009D00061E082E00E94D30061E083E00E94D300E6
:1009E00061E084E00E94D30061E085E00E94D300D2
:1009F00061E086E00E94D30061E087E00E94D300BE
:100A000061E088E00E94D30019A283E388A3BE01BD
:100A1000605E7F4FFB0101900020E9F73197AF0145
:100A2000461B570B8FEB92E00E94290142E050E0F9
:100A300066EA72E08FEB92E00E9429016CE6E62EF6
:100A400061E0F62E70EB672E72E0772E10E000E08A
:100A50008090B4029090B502801691060CF47FC08D
:100A600054E4A52E52E0B52ED12CC12CF501808185
:100A7000F2E0AF0EB11C60E00E9487002FEFC21AB7
:100A8000D20A8C149D0494F7F30181913F01F70180
:100A900081110BC08091AE029091AF02FC01EE0F6C
:100AA000FF1FE80FF91FE459FE4FD180C28060E0BC
:100AB00083E00E9487008C2D0E9436028D2D0E94BB
:100AC000360261E083E00E94870061E001151105B4
:100AD00009F060E085E00E94870061E001301105C7
:100AE00009F060E086E00E94870061E002301105B5
:100AF00009F060E087E00E94870061E003301105A3
:100B000009F060E088E00E9487000E9404011B0158
:100B10002C0135E0832E912CA12CB12C0E940401D4
:100B20006219730984099509683E7340810591052E
:100B3000A8F3F1E08F1A9108A108B10828EE220E5F
:100B400023E0321E411C511C81149104A104B10404
:100B500029F70F5F1F4FF3E0EF0EF11C79CF2FB78E
:100B6000F8948091B7029091B802A091B902B09127
:100B7000BA022FBF4091AA025091AB026091AC0221
:100B80007091AD02841B950BA60BB70B85369105B2
:100B9000A105B10508F43EC02FB7F8948091B702C3
:100BA0009091B802A091B902B091BA022FBF809380
:100BB000AA029093AB02A093AC02B093AD028091D5
:100BC000AE029091AF0201969093AF028093AE0275
:100BD00097FF20C0FC01EE0FFF1FE80FF91FE4593B
:100BE000FE4F81819281892BA9F48091B40290916A
:100BF000B502FC01E055FD4F21E020831092AF02C9
:100C00001092AE02843091052CF401969093B502B7
:100C10008093B40280E090E0892B09F40FCF0E940A
:100C20009301882309F40ACF0E94000007CFEE0F3A
:100C3000FF1F0590F491E02D0994F894FFCF00FF79
:100C400044000C00007788003F88008C8800B39037
:100C500000FB88000F0000FF8800BF8800CF8800DD
:100C60003F2A00F300003F2200F38800F38800FBD6
:100C70000800CC88003322007C0000C09400F00003
:100C800000CC0500CC1100FF0000C78800FF100059
:100C9000C79800BB8800032200FC0000C04400CCC1
:100CA0005000005500002500334400FF44000C00B4
:100CB000007788003F88008C8800B39000FB880094
:100CC0000F0000FF8800BF8800CF88003F2A00F394
:100CD00000003F2200F38800F38800FB0800CC8866
:100CE000003322007C0000C09400F00000CC05001E
:100CF000CC1100FF0000C78800FF1000C79800BBA0
:100D00008800032200FC0000C04400CC50000055C5
:100D100000002500334400FF44000C0000778800E9
:100D20003F88008C8800B39000FB88000F0000FF14
:100D30008800BF8800CF88003F2A00F300003F22D0
:100D400000F38800F38800FB0800CC880033220001
:100D50007C0000C09400F00000CC0500CC1100FF26
:100D60000000C78800FF1000C79800BB880003225E
:100D700000FC0000C04400CC5000005500002500DD
:100D80003344050006000700080000000000C90108
:100D900029015601160287016501790141003000E1
:100DA000310032003300340035003600370038009F
:100DB0003900420043004400450046004700480017
:100DC00049004A004B004C004D004E004F005000BF
:100DD000510052005300540055005600570058006F
:080DE00059005A000D0A000041
:107E0000112484B714BE81FFF0D085E080938100F7
:107E100082E08093C00088E18093C10086E0809377
:107E2000C20080E18093C4008EE0C9D0259A86E02C
:107E300020E33CEF91E0309385002093840096BBD3
:107E4000B09BFECF1D9AA8958150A9F7CC24DD24C4
:107E500088248394B5E0AB2EA1E19A2EF3E0BF2EE7
:107E6000A2D0813461F49FD0082FAFD0023811F036
:107E7000013811F484E001C083E08DD089C08234E0
:107E800011F484E103C0853419F485E0A6D080C0E4
:107E9000853579F488D0E82EFF2485D0082F10E0AE
:107EA000102F00270E291F29000F111F8ED06801E7
:107EB0006FC0863521F484E090D080E0DECF843638
:107EC00009F040C070D06FD0082F6DD080E0C81688
:107ED00080E7D80618F4F601B7BEE895C0E0D1E017
:107EE00062D089930C17E1F7F0E0CF16F0E7DF06D8
:107EF00018F0F601B7BEE89568D007B600FCFDCFD4
:107F0000A601A0E0B1E02C9130E011968C91119780
:107F100090E0982F8827822B932B1296FA010C0160
:107F200087BEE89511244E5F5F4FF1E0A038BF0790
:107F300051F7F601A7BEE89507B600FCFDCF97BE46
:107F4000E89526C08437B1F42ED02DD0F82E2BD052
:107F50003CD0F601EF2C8F010F5F1F4F84911BD097
:107F6000EA94F801C1F70894C11CD11CFA94CF0C13
:107F7000D11C0EC0853739F428D08EE10CD085E9AC
:107F80000AD08FE07ACF813511F488E018D01DD067
:107F900080E101D065CF982F8091C00085FFFCCF94
:107FA0009093C60008958091C00087FFFCCF809118
:107FB000C00084FD01C0A8958091C6000895E0E648
:107FC000F0E098E1908380830895EDDF803219F02E
:107FD00088E0F5DFFFCF84E1DECF1F93182FE3DFCA
:107FE0001150E9F7F2DF1F91089580E0E8DFEE27F6
:047FF000FF270994CA
:027FFE00040479
:00000001FF
