:020000040000FA
:100000000C945D000C9485000C9485000C94850084
:100010000C9485000C9485000C9485000C9485004C
:100020000C9485000C9485000C9485000C9485003C
:100030000C9485000C9485000C9485000C9485002C
:100040000C9482020C9485000C94F2020C94CC0265
:100050000C9485000C9485000C9485000C9485000C
:100060000C9485000C94850000000008000201003B
:100070000003040700000000000000000000000072
:10008000250028002B0000000000240027002A0083
:10009000040404040404040402020202020203032E
:1000A0000303030301020408102040800102040836
:1000B0001020010204081020650411241FBECFEF98
:1000C000D8E0DEBFCDBF11E0A0E0B1E0E4E3F9E0AD
:1000D00002C005900D92AA38B107D9F722E0AAE82C
:1000E000B1E001C01D92AC33B207E1F710E0CDE5FD
:1000F000D0E004C02197FE010E949204CC35D107C4
:10010000C9F70E9424030C9498040C94000090E01A
:10011000FC01EC55FF4F249180579F4FFC018491C7
:10012000882399F090E0880F991FFC01EA57FF4F50
:10013000A591B491FC01E458FF4F859194918FB73C
:10014000F894EC91E22BEC938FBF089590E0FC01C2
:10015000E859FF4F2491FC01EC55FF4F3491FC010D
:10016000E057FF4FE491EE23C9F0222339F023300A
:1001700001F1A8F4213019F1223029F1F0E0EE0F5D
:10018000FF1FE458FF4FA591B4918FB7F894EC91FD
:10019000611126C030953E233C938FBF08952730D0
:1001A000A9F02830C9F0243049F7809180008F7D74
:1001B00003C0809180008F7780938000DFCF84B56B
:1001C0008F7784BDDBCF84B58F7DFBCF8091B0006E
:1001D0008F778093B000D2CF8091B0008F7DF9CF20
:1001E0003E2BDACF3FB7F8948091380290913902D4
:1001F000A0913A02B0913B0226B5A89B05C02F3FC3
:1002000019F00196A11DB11D3FBFBA2FA92F982F3C
:100210008827BC01CD01620F711D811D911D42E037
:10022000660F771F881F991F4A95D1F708958F92FF
:100230009F92AF92BF92CF92DF92EF92FF924B01CB
:100240005C010E94F2006B017C010E94F2006C19BB
:100250007D098E099F09683E734081059105A8F3C9
:1002600021E0821A9108A108B10888EEC80E83E047
:10027000D81EE11CF11C81149104A104B10429F7DA
:10028000FF90EF90DF90CF90BF90AF909F908F90B6
:100290000895AF92BF92CF92DF92EF92FF920F93A9
:1002A0001F93CF93DF936C017B018B01040F151F0C
:1002B000EB015E01AE18BF08C017D10759F0699174
:1002C000D601ED91FC910190F081E02DC6010995D8
:1002D000892B79F7C501DF91CF911F910F91FF9085
:1002E000EF90DF90CF90BF90AF900895FC01538DB9
:1002F000448D252F30E0842F90E0821B930B541700
:1003000010F0CF96089501970895FC01918D828D8C
:10031000981761F0A28DAE0FBF2FB11D5D968C9125
:10032000928D9F5F9F73928F90E008958FEF9FEF64
:100330000895FC01918D828D981731F0828DE80F20
:10034000F11D858D90E008958FEF9FEF0895FC01DA
:10035000918D228D892F90E0805C9F4F821B9109A7
:100360008F73992708958AE891E00E94A70121E000
:10037000892B09F420E0822F089580E090E0892BFA
:1003800029F00E94B30181110C9400000895FC0132
:10039000A48DA80FB92FB11DA35ABF4F2C91848DE6
:1003A00090E001968F739927848FA689B7892C9343
:1003B000A089B1898C91837080648C93938D848D96
:1003C000981306C00288F389E02D80818F7D808399
:1003D0000895EF92FF920F931F93CF93DF93EC0159
:1003E00081E0888F9B8D8C8D98131AC0E889F989DC
:1003F000808185FF15C09FB7F894EE89FF896083DF
:10040000E889F98980818370806480839FBF81E05F
:1004100090E0DF91CF911F910F91FF90EF900895A1
:10042000F62E0B8D10E00F5F1F4F0F731127E02E7C
:100430008C8D8E110CC00FB607FCFACFE889F989B4
:10044000808185FFF5CFCE010E94C701F1CFEB8DF2
:10045000EC0FFD2FF11DE35AFF4FF0829FB7F89488
:100460000B8FEA89FB8980818062CFCFCF93DF93A6
:10047000EC01888D8823B9F0AA89BB89E889F989BC
:100480008C9185FD03C0808186FD0DC00FB607FCF1
:10049000F7CF8C9185FFF2CF808185FFEDCFCE0124
:1004A0000E94C701E9CFDF91CF910895CF93DF93E9
:1004B000D82FC8E06D2F661F6627661F82E00E9456
:1004C000A600DD0F61E084E00E94A60060E084E009
:1004D0000E94A600C15071F7DF91CF910895CF938C
:1004E000DF93EC0160E083E00E94A6008D2F0E9464
:1004F00056028C2F0E94560261E083E0DF91CF917B
:100500000C94A6001F920F920FB60F9211242F93F6
:100510003F938F939F93AF93BF93809134029091B9
:100520003502A0913602B09137023091330223E0B8
:10053000230F2D3758F50196A11DB11D20933302CD
:100540008093340290933502A0933602B093370221
:100550008091380290913902A0913A02B0913B0209
:100560000196A11DB11D8093380290933902A0938A
:100570003A02B0933B02BF91AF919F918F913F910F
:100580002F910F900FBE0F901F90189526E8230F04
:100590000296A11DB11DD2CF1F920F920FB60F92DE
:1005A00011242F933F934F935F936F937F938F9378
:1005B0009F93AF93BF93EF93FF938AE891E00E94DC
:1005C000C701FF91EF91BF91AF919F918F917F9163
:1005D0006F915F914F913F912F910F900FBE0F90B0
:1005E0001F9018951F920F920FB60F9211242F9300
:1005F0008F939F93EF93FF93E0919A01F0919B016A
:100600008081E091A001F091A10182FD1BC0908149
:100610008091A3018F5F8F732091A401821741F015
:10062000E091A301F0E0E657FE4F958F8093A30180
:10063000FF91EF919F918F912F910F900FBE0F908F
:100640001F9018958081F4CF789484B5826084BD22
:1006500084B5816084BD85B5826085BD85B58160C6
:1006600085BD80916E00816080936E001092810044
:1006700080918100826080938100809181008160FF
:1006800080938100809180008160809380008091C0
:10069000B10084608093B1008091B000816080934C
:1006A000B00080917A00846080937A0080917A0013
:1006B000826080937A0080917A00816080937A00D2
:1006C00080917A00806880937A001092C100E09156
:1006D0009A01F0919B0182E08083E0919601F09174
:1006E00097011082E0919801F09199018FEC80833D
:1006F0001092A201E0919E01F0919F0186E080831B
:10070000E0919C01F0919D01808180618083E09166
:100710009C01F0919D01808188608083E0919C0123
:10072000F0919D01808180688083E0919C01F0912F
:100730009D0180818F7D808382E00E94870083E01D
:100740000E94870084E00E94870066E3E62E61E055
:10075000F62E0FE212E0C2E8D1E0888122960E94D4
:100760008700F70121917F01E2E1F1E090E080E074
:100770003191231345C0880F991FFC01E65CFE4FA1
:1007800020813181F801819191918F013297820FFF
:10079000931F91838083F1E0CA38DF07F1F640E0D0
:1007A000442E40E0542E3FE2E32E32E0F32EF701D8
:1007B0008191882369F182E0E333F807C9F78FE27A
:1007C000E82E82E0F82EC2E8D1E01881229661E09E
:1007D000812F0E94A600F701819191917F010E94D3
:1007E0006F0262E070E080E090E00E94170160E03C
:1007F000812F0E94A600F1E0CA38DF0731F74DC013
:1008000001968432910509F0B3CF30E020E0BACFF1
:1008100022E8C22E21E0D22ED0E0C0E0F6013080E6
:10082000F2E0CF0ED11C61E0832D0E94A600F701FB
:1008300081917F01811123C0FE01E15DFD4F608048
:100840007180CE01895D9D4F5C01FC0100811181A9
:10085000F801EE0FFF1FE65CFE4F80809180C4011F
:100860000E946F026814790421F581E0F701319745
:10087000808368EC70E080E090E00E94170162E005
:1008800070E080E090E00E94170160E0832D0E94FC
:10089000A6002296C830D10509F64114510409F486
:1008A00082CF0E94B301882309F47DCF0E9400000B
:1008B0007ACF0F5F1F4FF5010432110518F4118331
:1008C0000083D7CF11821082D4CFEAE8F1E01382FF
:1008D000128288EE93E0A0E0B0E084839583A68343
:1008E000B78384E091E09183808385EC90E09587E5
:1008F000848784EC90E09787868780EC90E0918BEA
:10090000808B81EC90E0938B828B82EC90E0958BD6
:10091000848B86EC90E0978B868B118E128E138ED3
:10092000148E0895EE0FFF1F0590F491E02D0994A9
:10093000F894FFCF00000000E9014901760136027A
:10094000A7018501990130313233343536373839D2
:100950004142434445464748494A4B4C4D4E4F500F
:100960005152535455565758595A49424E55FF44BF
:100970000C0077883F888C88B390FB880F00FF8835
:10098000BF88CF883F22F3003F22F388F388FB081B
:10099000CC8833227C00C094F000CC05CC11FF0041
:1009A000C788FF10C798BB880322FC00C044CC5006
:0E09B00000550025334405000600070008002E
:107E0000112484B714BE81FFF0D085E080938100F7
:107E100082E08093C00088E18093C10086E0809377
:107E2000C20080E18093C4008EE0C9D0259A86E02C
:107E300020E33CEF91E0309385002093840096BBD3
:107E4000B09BFECF1D9AA8958150A9F7CC24DD24C4
:107E500088248394B5E0AB2EA1E19A2EF3E0BF2EE7
:107E6000A2D0813461F49FD0082FAFD0023811F036
:107E7000013811F484E001C083E08DD089C08234E0
:107E800011F484E103C0853419F485E0A6D080C0E4
:107E9000853579F488D0E82EFF2485D0082F10E0AE
:107EA000102F00270E291F29000F111F8ED06801E7
:107EB0006FC0863521F484E090D080E0DECF843638
:107EC00009F040C070D06FD0082F6DD080E0C81688
:107ED00080E7D80618F4F601B7BEE895C0E0D1E017
:107EE00062D089930C17E1F7F0E0CF16F0E7DF06D8
:107EF00018F0F601B7BEE89568D007B600FCFDCFD4
:107F0000A601A0E0B1E02C9130E011968C91119780
:107F100090E0982F8827822B932B1296FA010C0160
:107F200087BEE89511244E5F5F4FF1E0A038BF0790
:107F300051F7F601A7BEE89507B600FCFDCF97BE46
:107F4000E89526C08437B1F42ED02DD0F82E2BD052
:107F50003CD0F601EF2C8F010F5F1F4F84911BD097
:107F6000EA94F801C1F70894C11CD11CFA94CF0C13
:107F7000D11C0EC0853739F428D08EE10CD085E9AC
:107F80000AD08FE07ACF813511F488E018D01DD067
:107F900080E101D065CF982F8091C00085FFFCCF94
:107FA0009093C60008958091C00087FFFCCF809118
:107FB000C00084FD01C0A8958091C6000895E0E648
:107FC000F0E098E1908380830895EDDF803219F02E
:107FD00088E0F5DFFFCF84E1DECF1F93182FE3DFCA
:107FE0001150E9F7F2DF1F91089580E0E8DFEE27F6
:047FF000FF270994CA
:027FFE00040479
:00000001FF
