:100000000C945D000C9485000C9485000C94850084
:100010000C9485000C9485000C9485000C9485004C
:100020000C9485000C9485000C9485000C9485003C
:100030000C9485000C9485000C9485000C9485002C
:100040000C944F020C9485000C94BF020C949902FE
:100050000C9485000C9485000C9485000C9485000C
:100060000C9485000C9485000000000024002700FB
:100070002A0000000000250028002B0004040404CE
:100080000404040402020202020203030303030342
:10009000010204081020408001020408102001021F
:1000A00004081020000000080002010000030407FB
:1000B00000000000000000009A0411241FBECFEFD2
:1000C000D8E0DEBFCDBF11E0A0E0B1E0EEE9F9E09D
:1000D00002C005900D92AA38B107D9F722E0AAE82C
:1000E000B1E001C01D92AC33B207E1F710E0CDE5FD
:1000F000D0E004C02197FE010E94C704CC35D1078F
:10010000C9F70E94F1020C94CD040C94000090E019
:10011000FC01EC55FF4F2491FC01E057FF4F349157
:10012000FC01E458FF4FE491EE23C9F0222339F09B
:10013000233001F1A8F4213019F1223029F1F0E047
:10014000EE0FFF1FEE58FF4FA591B4918FB7F894B3
:10015000EC91611126C030953E233C938FBF0895EA
:100160002730A9F02830C9F0243049F78091800069
:100170008F7D03C0809180008F7780938000DFCFD8
:1001800084B58F7784BDDBCF84B58F7DFBCF809125
:10019000B0008F778093B000D2CF8091B0008F7D78
:1001A000F9CF3E2BDACFCF93DF9390E0FC01E057FD
:1001B000FF4F249184589F4FFC0184918823D1F0F4
:1001C00090E0880F991FFC01E859FF4FA591B49169
:1001D000FC01EE58FF4FC591D49161110EC09FB73D
:1001E000F8948C91E22FE0958E238C932881E22362
:1001F000E8839FBFDF91CF9108958FB7F894EC917A
:10020000E22BEC938FBFF6CF3FB7F8948091380282
:1002100090913902A0913A02B0913B0226B5A89B79
:1002200005C02F3F19F00196A11DB11D3FBFBA2F88
:10023000A92F982F8827BC01CD01620F711D811D48
:10024000911D42E0660F771F881F991F4A95D1F7CD
:100250000895AF92BF92CF92DF92EF92FF920F93E9
:100260001F93CF93DF936C017B018B01040F151F4C
:10027000EB015E01AE18BF08C017D10759F06991B4
:10028000D601ED91FC910190F081E02DC601099518
:10029000892B79F7C501DF91CF911F910F91FF90C5
:1002A000EF90DF90CF90BF90AF900895FC01538DF9
:1002B000448D252F30E0842F90E0821B930B541740
:1002C00010F0CF96089501970895FC01918D828DCD
:1002D000981761F0A28DAE0FBF2FB11D5D968C9166
:1002E000928D9F5F9F73928F90E008958FEF9FEFA5
:1002F0000895FC01918D828D981731F0828DE80F61
:10030000F11D858D90E008958FEF9FEF0895FC011A
:10031000918D228D892F90E0805C9F4F821B9109E7
:100320008F73992708958AE891E00E94870121E060
:10033000892B09F420E0822F089580E090E0892B3A
:1003400029F00E94930181110C9400000895FC0192
:10035000A48DA80FB92FB11DA35ABF4F2C91848D26
:1003600090E001968F739927848FA689B7892C9383
:10037000A089B1898C91837080648C93938D848DD6
:10038000981306C00288F389E02D80818F7D8083D9
:100390000895EF92FF920F931F93CF93DF93EC0199
:1003A00081E0888F9B8D8C8D98131AC0E889F9891C
:1003B000808185FF15C09FB7F894EE89FF8960831F
:1003C000E889F98980818370806480839FBF81E0A0
:1003D00090E0DF91CF911F910F91FF90EF900895E2
:1003E000F62E0B8D10E00F5F1F4F0F731127E02EBD
:1003F0008C8D8E110CC00FB607FCFACFE889F989F5
:10040000808185FFF5CFCE010E94A701F1CFEB8D52
:10041000EC0FFD2FF11DE35AFF4FF0829FB7F894C8
:100420000B8FEA89FB8980818062CFCFCF93DF93E6
:10043000EC01888D8823B9F0AA89BB89E889F989FC
:100440008C9185FD03C0808186FD0DC00FB607FC31
:10045000F7CF8C9185FFF2CF808185FFEDCFCE0164
:100460000E94A701E9CFDF91CF910895CF93DF9349
:10047000D82FC8E06D2F661F6627661F82E00E9496
:100480008700DD0F61E084E00E94870060E084E087
:100490000E948700C15071F7DF91CF9108951F929C
:1004A0000F920FB60F9211242F933F938F939F9328
:1004B000AF93BF938091340290913502A0913602A0
:1004C000B09137023091330223E0230F2D3758F5D6
:1004D0000196A11DB11D20933302809334029093A5
:1004E0003502A0933602B093370280913802909182
:1004F0003902A0913A02B0913B020196A11DB11DB3
:100500008093380290933902A0933A02B0933B0251
:10051000BF91AF919F918F913F912F910F900FBEFF
:100520000F901F90189526E8230F0296A11DB11D6C
:10053000D2CF1F920F920FB60F9211242F933F9399
:100540004F935F936F937F938F939F93AF93BF93DB
:10055000EF93FF938AE891E00E94A701FF91EF914A
:10056000BF91AF919F918F917F916F915F914F91CB
:100570003F912F910F900FBE0F901F9018951F92D3
:100580000F920FB60F9211242F938F939F93EF9397
:10059000FF93E0919A01F0919B018081E091A0018D
:1005A000F091A10182FD1BC090818091A3018F5F1A
:1005B0008F732091A401821741F0E091A301F0E034
:1005C000E657FE4F958F8093A301FF91EF919F9186
:1005D0008F912F910F900FBE0F901F9018958081D3
:1005E000F4CF789484B5826084BD84B5816084BD85
:1005F00085B5826085BD85B5816085BD80916E00C1
:10060000816080936E0010928100809181008260F1
:10061000809381008091810081608093810080912E
:1006200080008160809380008091B100846080931D
:10063000B1008091B00081608093B00080917A0019
:10064000846080937A0080917A00826080937A003F
:1006500080917A00816080937A0080917A0080682E
:1006600080937A001092C100E0919A01F0919B0171
:1006700082E08083E0919601F09197011082E091F1
:100680009801F09199018FEC80831092A201E09182
:100690009E01F0919F0186E08083E0919C01F091A2
:1006A0009D01808180618083E0919C01F0919D019A
:1006B000808188608083E0919C01F0919D01808120
:1006C00080688083E0919C01F0919D0180818F7D05
:1006D000808360E084E10E94D30061E082E00E94B8
:1006E000D30061E083E00E94D30061E084E00E94D7
:1006F000D30061E085E00E94D30061E086E00E94C3
:10070000D30061E087E00E94D30061E088E00E94AE
:10071000D30000E010E0EDE2EE2EE2E0FE2ED0E0AD
:10072000C0E060903102709032026C167D060CF4CD
:1007300095C072E8872E71E0972EB12CA12CF401A0
:100740008081F2E08F0E911C60E00E9487002FEF05
:10075000A21AB20A6A147B0494F7F70181917F010F
:10076000882309F46FC0FE01E258FE4F8081082EF5
:10077000000C990BE0E0F1E02081022E000C330B1D
:100780008217930709F055C0B180A28060E083E032
:100790000E9487008A2D0E9436028B2D0E9436020D
:1007A00061E083E00E94870061E0209709F060E04B
:1007B00085E00E94870061E0C130D10509F060E06A
:1007C00086E00E94870061E0C230D10509F060E058
:1007D00087E00E94870061E0C330D10509F060E046
:1007E00088E00E9487000E9404012B013C0155E033
:1007F000852E912CA12CB12C0E940401641975093D
:1008000086099709683E734081059105A8F381E048
:10081000881A9108A108B10898EE490E93E0591E74
:10082000611C711C81149104A104B10429F7219663
:1008300078CF339621E0EC36F20709F09DCFB12C4A
:10084000A12CA4CF80912B0290912C02FC01EE0FE1
:10085000FF1FE80FF91FE050FF4F96CF2FB7F89416
:100860008091340290913502A0913602B091370206
:100870002FBF409127025091280260912902709168
:100880002A02841B950BA60BB70B85369105A10593
:10089000B10508F443C02FB7F894809134029091C9
:1008A0003502A0913602B09137022FBF8093270204
:1008B00090932802A0932902B0932A0220912B0240
:1008C00030912C022F5F3F4F30932C0220932B024C
:1008D000243231051CF58091310290913202F901E8
:1008E000EE0FFF1FE20FF31FE050FF4FDC01A25895
:1008F000BE4F30812C91321311C021E0FC01E35D29
:10090000FD4F208310922C0210922B02843091050F
:100910002CF4019690933202809331020115110557
:1009200009F4F9CE0E949301882309F4F4CE0E94C1
:100930000000F1CEEAE8F1E01382128288EE93E043
:10094000A0E0B0E084839583A683B78380E791E03D
:100950009183808385EC90E09587848784EC90E098
:100960009787868780EC90E0918B808B81EC90E07C
:10097000938B828B82EC90E0958B848B86EC90E05D
:10098000978B868B118E128E138E148E0895EE0F18
:0E099000FF1F0590F491E02D0994F894FFCF1D
:10099E0030FF44310C00327788333F88348C8835F1
:1009AE00B39036FB88370F0038FF8839BF8841CFA8
:1009BE0088423F2A43F300443F2245F38846F3889A
:1009CE0047FB0848CC884933224A7C004BC0944CE4
:1009DE00F0004DCC054ECC114FFF0050C78851FF93
:1009EE001052C79853BB8854032255FC0056C0447E
:1009FE0057CC505800555900255A3344000000007A
:100A0E00C901290156011602870165017901494282
:0A0A1E004E55050006000700080011
:00000001FF
